:0A00000012C0FECFFDCFFCCFFBCFF6
:10000A00FACFF9CFF8CFF7CFF6CFF5CFF4CFF3CFBA
:10001A00F2CFF1CFF0CFEFCFEECFEDCFF894EE27BE
:10002A00ECBBF1E0FBBFEBBFE5BFF8E1F1BDE1BD21
:10003A008DE0A2E0BB27ED938A95E9F780E094E092
:10004A00A0E6ED930197E9F7EFE5EDBFE4E0EEBF37
:10005A00C0E6D1E000C0BA9AC29AA4E6B0E006D0DF
:10006A00C298A4E6B0E002D0F7CFFFCF109639F0DD
:10007A0080ED97E00197F1F7A8951197C9F70895D0
:00000001FF
